:1000000000300020010800004508000045080000FD
:1000100000000000000000000000000000000000E0
:100020000000000000000000000000004508000083
:100030000000000000000000450800004508000026
:10004000450800004508000045080000450800007C
:10005000450800004508000045080000450800006C
:10006000450800004508000045080000450800005C
:1000700069110000A9110000E91100004508000005
:1000800045080000450800009912000045080000DE
:10009000450800004508000045080000450800002C
:1000A000450800004508000045080000450800001C
:1000B000450800004508000045080000450800000C
:10040000FFFFFFFFFFFFFFFFFFFFFFFFFEFFFFFFFD
:1008000072B602F057FC62B609490A4A0A4B9B1AB3
:1008100003DD043BC858D050FBDC0849084A521A93
:1008200003DD00208850043AFCDA00F05BFD000094
:10083000143D000000F0FF1F1CF0FF1F1CF0FF1F05
:1008400098F0FF1F0048004745080000002934D0F9
:100850000123002210B488422CD301242407A14292
:1008600004D2814202D209011B01F8E7E400A1424F
:1008700004D2814202D249005B00F8E7884201D3EA
:10088000401A1A434C08A04202D3001B5C082243C2
:100890008C08A04202D3001B9C082243CC08A04233
:1008A00002D3001BDC082243002803D01B0901D01F
:1008B0000909E3E7101C10BC7047002801D0002094
:1008C000C04307B4024802A14018029003BDC046CD
:1008D000190000000029F0D003B5FFF7B9FF0EBCE6
:1008E0004243891A1847C0467047C0468446081CD0
:1008F0006146FFE71FB500F0BDF8002801D40021D4
:10090000C8421FBD10B500F043F84042013010BD91
:1009100010B500F0AFF8002801DB002010BD012069
:1009200010BDC04610B500F0A5F8002801DD00207C
:1009300010BD012010BDC04610B500F053F80028CE
:1009400001DC002010BD012010BDC04610B500F034
:1009500049F8002801DA002010BD012010BDC04672
:100960009E2110B5C905041CFFF7F0FF002803D134
:10097000201C00F06BFB10BD9E21C905201C00F05F
:10098000EFF900F063FB80231B06C018F3E7C046B5
:100990004A02430270B55C0A550A43004A001B0E26
:1009A000C60F120EC90FFF2B05D0FF2A08D0012059
:1009B00093420BD070BD0120002CFBD1FF2AF6D151
:1009C0000120002DF6D101209342F3D1AC42F1D1A8
:1009D0008E4205D0002BEDD1201C441EA041E9E73A
:1009E0000020E7E74A024302F0B55C0A550A4300DB
:1009F0004A001B0EC60F120EC90FFF2B31D0FF2A63
:100A000034D0002B16D1604260418446002A14D0B5
:100A1000002820D18E4217D1934215DC04DBAC4272
:100A200012D80020AC4212D27042704140420123E1
:100A300018430CE0002AEDD194466F426F416046A6
:100A4000002805D1002FE5D0704201231843F0BDE6
:100A50000020002FFBD14842484140420123184367
:100A6000F5E7002CCBD002204042F0E7002DC8D0A3
:100A7000F9E7C0464A024302F0B55C0A550A430052
:100A80004A001B0EC60F120EC90FFF2B27D0FF2ADC
:100A900029D0002B10D0002A15D194466F426F4107
:100AA0006046002815D00020002F04D1484248415C
:100AB000404201231843F0BD604260418446002A51
:100AC000ECD00028F2D18E4211D07042012318439D
:100AD000F1E7002FF7D0704201231843EBE7022023
:100AE000002CE8D1D3E70220002DE4D1D1E79342D6
:100AF000EBDC04DBAC42E8D80020AC42DBD2704235
:100B00007041404201231843D5E7C046F0B55F4627
:100B100056464D464446F0B44402460083B00F1C8E
:100B2000640A360EC50F002E41D0FF2E22D080233E
:100B30001B0400201C43E4007F3E82468046391C93
:100B40004B007F02C90F7F0A1B0E8B463BD0FF2B49
:100B500034D0802212041743FF007F3B00215A4605
:100B60006A40019252460A430F2A63D87A4892009B
:100B700082589746002C3FD108220223924698467D
:100B8000DDE70195404602282AD1019A012515404A
:100B9000FF2300246402DB05600AED0718432843A5
:100BA00003B03CBC90469946A246AB46F0BD002C33
:100BB00027D10420012282469046C0E7391C4A1EF4
:100BC00091410231CBE70121002FC8D0381C00F041
:100BD000ADFA431F9F4076235B421B1A0021BEE7FC
:100BE000032800D1AEE001284FD1019842461040C1
:100BF000C5B200230024CDE70C2303209A4680468B
:100C00009DE7201C00F092FA7626431F9C40764216
:100C10000023361A9A46984691E780240025E4037B
:100C2000FF23B7E75B463C1C01938846AAE73C1CC0
:100C30008846A7E7250C24043A0C240C3F04F61838
:100C40003F0C211C231C794353436F435543FB182E
:100C50000A0C9B18B1469F4202D980225202AD185D
:100C600009041A04090C521894011B0C611E8C41D2
:100C7000920EED181443AD012C43230105D501223A
:100C800063080120144081441C434B467F33002BF2
:100C90002DDD600704D00F222240042A00D0043446
:100CA000220103D52D4B1C404B468033FE2B17DD14
:100CB000019B01251D400024FF236BE78020C0031A
:100CC000044208D0074206D1041C3C436402640A73
:100CD0005D46FF235EE704436402640AFF2359E78D
:100CE0000198A4010125640ADBB2054052E77E2386
:100CF0005B424A469B1A1B2B05DD019B01251D40CB
:100D00000024002346E7221CDA404B469E339C40D9
:100D1000231C5C1EA3411343580704D00F221A4022
:100D2000042A00D004335A0105D5019B01251D403A
:100D3000002401232EE701989C010125640A054047
:100D4000002327E78027FF03019B3C436402012522
:100D50001D40640AFF231DE78C340000FFFFFFF7EE
:100D6000F8B5C20F430244004D024800240E161C81
:100D70009B09000EC90FAD09FF2800D183E00127B0
:100D800079408A425CD0221A002A00DC8EE00028DA
:100D90001ED1002D00D07AE0580704D00F221A404F
:100DA000042A00D004338021C904012219403240B2
:100DB00000293AD00134FF2C00D183E09B015B0A6B
:100DC0005B02E4B2E405580AD20720431043F8BDA1
:100DD000FF2CE1D08021C9040D431B2A00DD31E145
:100DE000291C2020D140821A95406A1E95410D434E
:100DF0005B1B5801D0D59B019F09381C00F096F968
:100E0000421F974094425FDC141B1F231B1B3A1C9C
:100E10009F40611C3B1CCA405F1EBB411343002422
:100E2000BAE7131EB8D100230022DB08FF2C04D13F
:100E3000002B47D08020C00303435B025B0ABFE75F
:100E4000211A002944DD002827D0FF2CA4D08020BF
:100E5000C00405431B2900DDF2E0281C2027C84000
:100E6000791A8D40691E8D4105435B19590100D4E3
:100E700092E70134FF2C59D0734901221A400B40EC
:100E80005B08134388E7002D00D07AE777E7013A43
:100E9000002AADD0FF2CA0D17EE7002D00D17BE74A
:100EA00001390029E1D0FF2CD4D175E7002A1BD1EC
:100EB000621CD2B2012A4BDD5F1B7A0123D5EF1AE7
:100EC0000E1C9AE700237BE75F4BA41A3B4063E7C5
:100ED000002946D1611CC8B2012829DDFF2924D090
:100EE000EB185B080C1C57E7002C13D0FF2818D018
:100EF0008024E404524223431B2A4DDD0123EB1AD4
:100F0000041C0E1C75E7002F00D076E7002300229A
:100F100000248AE7002B3BD0D243002AEFD0FF28E1
:100F2000EAD12B1CFF240E1C36E7FF2400237CE7AC
:100F3000002C5CD1002B00D180E0002D00D12BE7EC
:100F40005B19580100D427E73F4A0124134023E7E7
:100F5000002C15D1002B40D1002D63D02B1C0E1C72
:100F60001AE7002C21D1002B54D0C943002904D00A
:100F7000FF284CD01B2958DD01235B19041C75E7A1
:100F8000002B19D1002D48D02B1C0E1CFF2403E789
:100F90002B1C041C0E1CFFE61C1C2026D440B21A7D
:100FA00093405A1E93412343A9E7FF282FD0802462
:100FB000E40449422343DDE7FF24002D00D1EBE6A2
:100FC0008022DB08D203134204D0ED08154201D180
:100FD0002B1C0E1CDB00FF24DEE6002D00D1DBE61F
:100FE0005A1B500100D41CE7EB1A0E1CD4E6002B50
:100FF0000DD0FF24002D00D1CEE68022DB08D203E5
:101000001342E7D0ED081542E4D12B1CE2E72B1C7C
:10101000FF24C1E62B1C041CBEE6802300229B0497
:10102000FF2402E7231C0022FFE61C1C2027CC40E3
:10103000791A8B40591E8B4123439EE72B1CABE64C
:10104000012512E70125D3E6FFFFFFFB4302590A02
:101050004300C20F1B0E00207E2B0DDD9D2B0CDCF0
:10106000802000040143952B0ADC9620C31AD94046
:101070004842002A00D1081C7047034BD018FBE7F8
:10108000963B9940F4E7C046FFFFFF7F10B5041E72
:1010900033D000F04BF89E231B1A962B09DC08383E
:1010A00084406402640ADBB26402DB05600A184310
:1010B00010BD992B0ADD0522121A211CD1400A1CF1
:1010C000011C1B318C40611E8C411443052801DD3D
:1010D000421F9440144A2240610704D00F210C4063
:1010E000042C00D0043251010AD59F23181AFF287E
:1010F00016D09401640AC3B2D6E700230024D3E7D4
:10110000D208FF2B03D05402640ADBB2CCE7002ADA
:1011100006D08024E40314436402640AFF23C3E777
:10112000FF230024C0E7C046FFFFFFFB1C21012373
:101130001B04984201D3000C10391B0A984201D3BA
:10114000000A08391B09984201D30009043902A298
:10115000105C40187047C0460403020201010101FF
:10116000000000000000000090B583B000AF72B630
:10117000002001F0B9FC031C002B11D0FC1DBB1D8D
:101180000020191C01F00EFC031C2370BB1D1B78F2
:10119000002B05D0FB1D1B780020191C01F026FB3D
:1011A00062B6BD4603B090BD90B583B000AF72B6D5
:1011B000012001F099FC031C002B11D0FC1DBB1D6C
:1011C0000120191C01F0EEFB031C2370BB1D1B78D2
:1011D000002B05D0FB1D1B780120191C01F006FB1C
:1011E00062B6BD4603B090BD90B583B000AF72B695
:1011F000022001F079FC031C002B3ED0FC1DBB1D1E
:101200000220191C01F0CEFB031C2370BB1D1B78B0
:10121000002B32D0FB1D1B78002B12D0194B1B78F2
:10122000FA1D1178184AD154164B1B780133DAB2E3
:10123000144B1A70134B1B78642B02D9114B0022EC
:101240001A70FB1D1B78EE2B03D1104B00221A7075
:1012500013E0FB1D1B78EF2B03D10D4B01221A70FD
:101260000BE00A4B1B78FA1D11780A4AD154074B40
:101270001B780133DAB2054B1A7062B6BD4603B073
:1012800090BDC0461CF0FF1F2CF0FF1F1DF0FF1F7C
:1012900094F0FF1F28F0FF1F80B500AF012001F080
:1012A00051FD031C012B14D1012001F063FD0A4BF9
:1012B0001B88013B9AB2084B1A80084B1B880133EC
:1012C0009AB2064B1A80064B1B8801339AB2044B24
:1012D0001A80BD4680BDC04624F0FF1F92F0FF1F5C
:1012E00090F0FF1FB0B596B000AF391C40315D4A99
:1012F0000B1C31CA31C312681A6000230B61391C00
:101300001431594A0B1C31CA31C331CA31C331CAF5
:1013100031C312881A8026230022CA52CB18002219
:101320009A703A1C0C32514B111C1A1C0723081CD2
:10133000111C1A1C01F08EFF3B1D00221A600022B6
:101340009A8000229A7172B60A23FF33181C012179
:1013500000F098FB89235B00181C012100F092FB30
:101360001423FF33181C012100F08CFBE1235B02E6
:101370000020191C01F0ECF8E1235B020120191C8C
:1013800001F0E6F8E1235B020220191C01F0E0F80D
:1013900000F06EFF00F038FD354A364B0120111C7D
:1013A0001A1C01F03DFC002001F060FB012001F05F
:1013B0005DFB022001F05AFB012001F0A9FC62B69E
:1013C000012000F0E3FB031C012B04D13B1C403344
:1013D000181C00F057F800F0C3F8031C012B3DD196
:1013E000254B1A783B1C0C339A70244B1A783B1C03
:1013F0000C33DA70224B1B88DAB23B1C0C331A71A7
:101400001F4B1B88DBB2181C00F0D0F8031C1A1C01
:101410003B1C0C335A713B1C573300221A7011E0ED
:101420003B1C57331B783A1C57321278391C0C314D
:10143000895C3A1DD1543B1C57331A783B1C5733F7
:1014400001321A703B1C57331B78062BE8D93A1C23
:1014500014323B1D101C191C00F062F800F0E4F877
:10146000AEE7C046A0330000B4330000E033000014
:10147000B80B0000000020411EF0FF1F00F0FF1F0E
:1014800020F0FF1F80B582B000AF786000F0E8FF69
:10149000031C002B1DD01F4B1B889AB21E4B1A80B9
:1014A0007B68002000211A1C00F06AFD1A4B1B8883
:1014B0001E2001211A1C00F0ABFE184B4620012112
:1014C0001A1C00F0CDFD0A23FF33181C00F004FBAA
:1014D0001CE0104B1B889AB20F4B1A807B680020CF
:1014E00000211A1C00F04CFD0B4B1B881E20012113
:1014F0001A1C00F08DFE094B462001211A1C00F039
:10150000AFFD0A23FF33181C00F0E6FABD4602B017
:1015100080BDC04622F0FF1F20F0FF1FE83300000F
:1015200080B582B000AF7860396000F083F9031CA9
:10153000012B12D17B68181C00F0B2F9031C012B9F
:101540000BD13B68181C00F021FA031C012B04D1BD
:1015500089235B00181C00F0BFFABD4602B080BDB5
:1015600080B582B000AFFB1D00221A700E4B1B78B5
:10157000042B07D196239B00181C00F0F3FAFB1DE7
:1015800001221A70084B1B78082B07D1FA23DB00C5
:10159000181C00F0E7FAFB1D01221A70FB1D1B78D6
:1015A000181CBD4602B080BD00F0FF1F80B586B09C
:1015B00000AF021CFB1D1A703B1C0F3323221A7054
:1015C0003B1C173300221A703B1C1733FA1D12788C
:1015D0001A7000233B611DE03B1C17331B785BB284
:1015E000002B0DDA3B1C17331B785B00DAB23B1C77
:1015F0000F331B785340DAB23B1C17331A7006E0E6
:101600003A1C17323B1C17331B78DB1813703B69ED
:1016100001333B613B69072BDEDD3B1C17331B7835
:10162000181CBD4606B080BD80B500AF244B1B78AA
:10163000012B43D1234B181C00F0A8F9224B1B7837
:101640005BB2012B37D1204B5B785BB2012B14D1FD
:1016500089235B00181C012100F02AFA0A23FF33BA
:10166000181C012100F024FA1423FF33181C002158
:1016700000F01EFA154B01221A70134B5B78002BF9
:1016800014D189235B00181C012100F011FA0A23F0
:10169000FF33181C012100F00BFA1423FF33181C30
:1016A000012100F005FA094B00221A70064B9B78C5
:1016B000DAB2074B1A70024B00221A70BD4680BD89
:1016C00094F0FF1FEC33000028F0FF1F1EF0FF1FF7
:1016D00000F0FF1F80B586B000AFF860B960BB1D99
:1016E0001A8003237B6100237B6107E01E4A7B692C
:1016F000D31800221A707B6901337B617B69632BED
:10170000F4DDFB680220191C01F00AF9BB1D1B88DF
:10171000181C00F027FABB68181C00F027F8031CFF
:10172000012B01D101231AE0FB68181C00F05EF8C0
:10173000BB1D1B88181C00F015FABB68181C00F0B4
:1017400015F8031C012B01D1012308E07B69002B54
:1017500001DA002303E07B69013B7B61E4E7181CAD
:10176000BD4606B080BDC0462CF0FF1F90B587B0C7
:1017700000AF78601C4B3B613B1C173300221A7092
:1017800021E03B1C17331B783A69D4187B68181C7E
:1017900001F0A2FD031C7A68201C111C1A1C01F028
:1017A000A3FD021C3B1C0F331A703B1C0F331B782C
:1017B000002B01D1012313E03B1C17331A783B1C8B
:1017C000173301321A703B1C17331C787B68181CC6
:1017D00001F082FD031C6422D31A9C42D1D3002362
:1017E000181CBD4607B090BD2CF0FF1F80B584B01B
:1017F00000AF78600023FB6007E00C4AFB68D31859
:1018000000221A70FB680133FB60FB68632BF4DD78
:101810007B680220191C01F083F8054B0220191C7B
:1018200001F07EF8BD4604B080BDC0462CF0FF1F1D
:10183000F033000080B582B000AFFB1D00221A70AB
:10184000134A144B101C191C0522FFF743FF031CFD
:10185000012B11D1104A114B101C191C0F22FFF73C
:1018600039FF031C012B03D1FB1D01221A7007E075
:10187000FB1DFE221A7003E0FB1DEA221A70C0460F
:10188000FB1D1B785BB2181CBD4602B080BDC04674
:10189000F4330000F8330000FC330000083400008B
:1018A00080B584B000AF78603B1C0F3300221A7003
:1018B000314A324B101C191C0F22FFF70BFF031C7F
:1018C000012B04D13B1C0F3301221A704CE02A4A31
:1018D0002B4B101C191C0F22FFF7FCFE031C012BC5
:1018E00010D17B68181C00F083F8031C012B04D175
:1018F0003B1C0F3301221A7036E03B1C0F330022D1
:101900001A7031E01C4A1F4B101C191C0F22FFF7E4
:10191000E1FE031C012B0ED17A68184B101C191C18
:101920001E22FFF7D7FE031C012B1DD13B1C0F33DA
:1019300001221A7018E0104A134B101C191C0F22B8
:10194000FFF7C8FE031C012B0ED17A680B4B101C4D
:10195000191C1E22FFF7BEFE031C012B04D13B1CE9
:101960000F3301221A70C0463B1C0F331B78181C22
:10197000BD4604B080BDC0461034000020340000D5
:101980002C340000383400004434000080B584B0AA
:1019900000AF78603B1C0F3300221A70124A134BC1
:1019A000101C191C0722FFF795FE031C012B0DD1FB
:1019B0007B68022007211A1C00F06CFF642000F0F5
:1019C000D1F83B1C0F3301221A7004E03B1C0F338B
:1019D000F2221A70C0463B1C0F331B785BB2181CF6
:1019E000BD4604B080BDC0465034000060340000E5
:1019F00080B584B000AF78603B1C0F3300221A70B2
:101A00001C4A1D4B101C191C1422FFF763FE031CFB
:101A1000002B22D0194A184B101C191C3222FFF738
:101A200059FE031C002B13D07A68154B101C191C8F
:101A30002822FFF74FFE031C002B04D03B1C0F3362
:101A400001221A700EE03B1C0F33F3221A7009E0DA
:101A50003B1C0F33F4221A7004E03B1C0F33F522B9
:101A60001A70C0463B1C0F331B785BB2181CBD4676
:101A700004B080BD64340000F8330000703400000E
:101A80002034000080B582B000AF0A1CBB1D011CD1
:101A900019807B1D1A70BB1D1A887B1D1B78101CBA
:101AA00001211A1C01F080F9BD4602B080BDC0467C
:101AB00080B582B000AF0A1CBB1D011C19807B1DC4
:101AC0001A70BB1D1A887B1D1B78101C191C01F095
:101AD000DFF9BD4602B080BD80B582B000AF021C08
:101AE000BB1D1A80BB1D1B88181C01F011FABD46D6
:101AF00002B080BD80B582B000AF021CBB1D1A8051
:101B000000E0C046BB1D1B88BA1D591E1180002B6A
:101B1000F7D1BD4602B080BD80B584B000AF021CD5
:101B2000BB1D1A8013E03B1C0F3300221A7009E022
:101B30000C20FFF7DFFF3B1C0F331A783B1C0F33E1
:101B400001321A703B1C0F331B78C72BF0D9BB1D19
:101B50001B88BA1D591E1180002BE4D1BD4604B06C
:101B600080BDC04680B582B000AF021CBB1D1A808C
:101B7000054BBA1D12881A80C046034B1B88002BE8
:101B8000FBD1BD4602B080BD24F0FF1F80B584B0FC
:101B900000AF021CFB1D1A703B1C0F3300221A7091
:101BA0000B4B1B881A1CFB1D1B7864214B439A426C
:101BB00006DB074B00221A803B1C0F3301221A70F0
:101BC0003B1C0F331B78181CBD4604B080BDC046BB
:101BD00090F0FF1F80B584B000AF021CFB1D1A708F
:101BE0003B1C0F3308221A7081235B00181C002154
:101BF00001F04EF988235B00181C002101F048F920
:101C000022E0FB1D1B785BB2002B06DA85235B000C
:101C1000181C012101F03CF905E085235B00181C2C
:101C2000002101F035F988235B00181C012101F027
:101C30002FF988235B00181C002101F029F9FA1DF7
:101C4000FB1D1B78DB1813703B1C0F331B783A1CF1
:101C50000F32591E1170002BD3D1BD4604B080BD88
:101C600080B582B000AF0A1CFB1D011C1970BB1DA2
:101C70001A70BB1D1B78503BDBB2181CFFF7AAFF84
:101C8000FB1D1B781B09DBB210221343DBB2181CAF
:101C9000FFF7A0FFFB1D1B781A1C0E231340DBB2BD
:101CA00001221343DBB2DBB2181CFFF793FFBD46E2
:101CB00002B080BD80B584B000AF021CBB1D1A808D
:101CC00012E03B1C0E330C4A1A80C0463B1C0E33FC
:101CD0001B883A1C0E32591E1180002BF6D1BB1DF9
:101CE0001A88BB1D013A1A80BB1D1B88002BE8D146
:101CF000C046BD4604B080BD80BBFFFF80B584B048
:101D000000AF021CFB1D1A703B1C0F3308221A7017
:101D100081235B00181C012101F0BAF888235B00C5
:101D2000181C002101F0B4F822E0FB1D1B785BB207
:101D3000002B06DA85235B00181C012101F0A8F8AE
:101D400005E085235B00181C002101F0A1F8882321
:101D50005B00181C012101F09BF888235B00181C14
:101D6000002101F095F8FA1DFB1D1B78DB1813709C
:101D70003B1C0F331B783A1C0F32591E1170002B7D
:101D8000D3D1BD4604B080BD80B584B000AF021C85
:101D9000FB1D1A703B1C0F3300221A702BE03B1CFA
:101DA0000F331B78503BDBB2181CFFF713FF0120E9
:101DB000FFF710FF1020FFF70DFF3B1C0E33002232
:101DC0001A700BE0FB1D1B78181CFFF797FF3B1CDC
:101DD0000E331A783B1C0E3301321A703B1C0E3343
:101DE0001B785BB2002BEDDA3B1C0F331A783B1CDF
:101DF0000F3301321A703B1C0F331B78072BCED9DF
:101E0000BD4604B080BDC04680B500AF88235B00EE
:101E1000181C0121012200F0C7FF85235B00181C5C
:101E20000121002200F0C0FF84235B00181C012167
:101E3000012200F0B9FF81235B00181C012101225F
:101E400000F0B2FF88235B00181C012101F08AF822
:101E500085235B00181C012101F084F884235B00BA
:101E6000181C012101F07EF881235B00181C012160
:101E700001F078F888235B00181C012101F008F8B4
:101E800080235B00181C0121002200F08DFF8023BD
:101E90005B00181C002100F0FBFF84235B00181C72
:101EA0000121012200F080FF84235B00181C002127
:101EB00000F0EEFF3220FFF7FDFE84235B00181CCC
:101EC000012100F0E5FFAE20FFF784FE0020FFF7C0
:101ED00081FE1020FFF77EFE4020FFF77BFE812071
:101EE000FFF778FECF20FFF775FEA120FFF772FE07
:101EF000C820FFF76FFEA620FFF76CFEA820FFF7B3
:101F000069FE3F20FFF766FED320FFF763FE002047
:101F1000FFF760FED520FFF75DFE8020FFF75AFE39
:101F2000D920FFF757FEF120FFF754FEDA20FFF724
:101F300051FE1220FFF74EFEDB20FFF74BFE402044
:101F4000FFF748FE2020FFF745FE0220FFF742FE84
:101F50008D20FFF73FFE1420FFF73CFEA420FFF783
:101F600039FEA620FFF736FEAF20FFF733FE002034
:101F7000FFF70AFF00200021FFF772FEBD4680BD7B
:101F800080B584B000AF3A60FB1D021C1A70BB1D07
:101F90000A1C1A703B1C0D3300221A703B1C0F33B5
:101FA00000221A703B1C0E3300221A704AE03B1CC0
:101FB0000E331B783A68D3181A783B1C0D33203A3D
:101FC0001A70FB1D1B787E2B07D9FB1D00221A708F
:101FD000BB1D1A78BB1D01321A70FB1D1A78BB1D80
:101FE0001B78101C191CFFF73BFE3B1C0F33002213
:101FF0001A7016E03B1C0D331A783B1C0F3318780F
:102000001649131C5B009B185B001B185B5C181CBB
:10201000FFF774FE3B1C0F331A783B1C0F33013261
:102020001A703B1C0F331B78052BE3D9FB1DFA1DDF
:10203000127806321A703B1C0E331A783B1C0E3392
:1020400001321A703B1C0E331B783A68D3181B7888
:10205000002BACD1BD4604B080BDC046CC340000DE
:1020600080B584B000AF3A60FB1D021C1A70BB1D26
:102070000A1C1A703B1C0D3300221A703B1C0F33D4
:1020800000221A703B1C0E3300221A7070E03B1CB9
:102090000E331B783A68D3181A783B1C0D33203A5C
:1020A0001A70FB1D1B78782B07D9FB1D00221A70B4
:1020B000BB1D1A78BB1D01321A70FB1D1A78BB1D9F
:1020C0001B78101C191CFFF7CBFD3B1C0F330022A3
:1020D0001A7013E03B1C0D331B781A013B1C0F33A5
:1020E0001B78D318284AD35C181CFFF707FE3B1C4B
:1020F0000F331A783B1C0F3301321A703B1C0F331D
:102100001B78072BE6D9BB1D1B780133DBB2FA1D08
:102110001278101C191CFFF7A3FD3B1C0F33002283
:102120001A7014E03B1C0D331B781A013B1C0F3353
:102130001B78D3180833144AD35C181CFFF7DEFD54
:102140003B1C0F331A783B1C0F3301321A703B1CB7
:102150000F331B78072BE5D9FB1DFA1D12780832C7
:102160001A703B1C0E331A783B1C0E3301321A7066
:102170003B1C0E331B783A68D3181B78002B86D192
:10218000BD4604B080BDC046F436000090B585B0B1
:1021900000AF021C3960BB1D1A803B1C0F330622A6
:1021A0001A703B1C0F331B783A68D31800221A7040
:1021B00025E03B1C0F331A783B1C0F33013A1A7091
:1021C000BB1D1B88181C0A21FEF784FB0B1C9AB24E
:1021D0003B1C0E331A70BC1DBB1D1B88181C0A212A
:1021E000FEF734FB031C23803B1C0F331B783A683B
:1021F000D3183A1C0E3212783032D2B21A703B1C0D
:102200000F331B78002BD4D1BD4605B090BDC0461E
:1022100080B586B000AFFB1D1870BB1D19703B1D4B
:102220001A803B1D1A883B1C0C33101C191CFFF72D
:10223000ADFF3B1C0C3301337B6111E0FB1D1978B2
:10224000BB1D1A787B69081C111C1A1CFFF708FFBC
:10225000FB1DFA1D127808321A707B6901337B610D
:102260007B691B78002BE9D1BD4606B080BDC04616
:1022700080B500AF074B074A526C802149000A43E2
:102280005A64054B044A5269802189020A435A6103
:10229000BD4680BD00B0044080F00F4080B500AF67
:1022A000164B164A5269802189020A435A61134B20
:1022B000124A1168124A0A401A60124B181CFFF7A2
:1022C00019FC0E4B0D4A1268802189020A431A60DC
:1022D0005A23FF33181CFFF70DFCC046074B1A6941
:1022E00080239B021340F9D1C046044B1A69802316
:1022F0009B021340F9D0BD4680BDC04680F00F4020
:10230000FFFFFDFF8208000080B584B000AF021C13
:10231000FB1D1A70204B204A5269802189020A4312
:102320005A613B1C0F3300221A702DE01A4B1A4AD7
:1023300011681A4A0A401A602820FFF7DBFBFB1DD0
:102340001A780123134006D0134B134A12688021D8
:1023500089020A431A60C020FFF7CCFB0E4B0E4ADD
:102360001268802189020A431A600C20FFF7C2FB21
:10237000FB1DFA1D127852081A703B1C0F331A7895
:102380003B1C0F3301321A703B1C0F331B78072B99
:10239000CCD9BD4604B080BD80F00F40FFFFFDFFEB
:1023A00080B582B000AFBB1D00221A7037E0FB1D64
:1023B000FA1D127852081A701E4B1E4A526980216B
:1023C00089020A435A611B4B1A4A1268802189020A
:1023D0000A431A60174B174A1168174A0A401A60D5
:1023E000144B144A1268802189020A431A6028207B
:1023F000FFF780FB0F4B1A6980239B02134006D026
:10240000FB1DFA1D1278802149420A431A70C1202F
:10241000FFF770FBBB1D1A78BB1D01321A70BB1D84
:102420001B78072BC3D9FB1D1B78181CBD4602B0B7
:1024300080BDC04680F00F40FFFFFDFF80B582B039
:1024400000AF021CFB1D1A70FB1D1A78FC23134001
:1024500001D0012300E00023181CBD4602B080BD5E
:1024600090B583B000AFFFF719FFCC20FFF74CFF0A
:102470004420FFF749FFC8239B00181CFFF74CFBC3
:10248000FFF70CFFCC20FFF73FFFBE20FFF73CFF1C
:10249000FC1DFFF785FF031C2370BC1DFFF780FFA9
:1024A000031C2370FFF7FAFEBB1D1B78181CFFF7F7
:1024B000C5FF031C002B1BD0BB1D1B789BB21B024E
:1024C0009AB2FB1D1B789BB2D3189AB2144B1A8098
:1024D000134B1B889BB25B429AB2114B1A80104B74
:1024E0001B889BB21B099AB20D4B1A80002313E084
:1024F000BB1D1B789BB21B029AB2FB1D1B789BB2C3
:10250000D3189AB2064B1A80054B1B889BB21B0945
:102510009AB2034B1A800123181CBD4603B090BD2C
:1025200022F0FF1F80B582B000AF021CFB1D1A70A5
:10253000064BFA1D1278111C1F220A400121081CAB
:102540009040021C1A60BD4602B080BD00E100E070
:1025500080B586B000AF021C3960FB1D1A709B4B22
:102560007B61FB1D1B78181C00F032FB031C002B49
:1025700000D128E1FB1D1B78002B00D098E0944A85
:102580009349944BCB588021C9041943914BD150A6
:102590008F4A8F498F4BCB588021490219438D4B6D
:1025A000D1508D4B8C4A926BC02189000A439A63AB
:1025B000894B894AD26BC02189000A43DA63C0463D
:1025C000834A8349854BCB588021C9001943834BEB
:1025D000D1507B69DB78DBB20C229343DAB27B69A2
:1025E000DA707F4B1B68181CFA239900FEF72EF94E
:1025F000031CFA2292005A433B681B01101C191C51
:10260000FEF724F9031C1A1C3B1C12331A807B6949
:102610001B78DAB23B1C11331F218A431A703B1C12
:1026200012331A88F8235B0113401B12DAB21F23FE
:102630001340DAB23B1C11331B781343DAB27B69C7
:102640001A703B1C12331B88DAB27B695A707B69A3
:102650000F229A727B6900229A707B6900229A711C
:102660007B6900221A727B6900225A727B691B798E
:10267000DBB21F221343DAB27B691A717B695B7983
:10268000DBB2402252421343DAB27B695A717B6952
:10269000DB78DAB27F231340DAB27B69DA707B69C8
:1026A000DB78DBB20C221343DAB27B69DA708AE0A2
:1026B000FB1D1B78012B02D0022B13D025E0494BC8
:1026C000C02292001A60474BC02292005A60C04656
:1026D0003F4A3F49414BCB588021090119433F4BA9
:1026E000D15012E03F4B8022D2009A653D4B8022B0
:1026F000D200DA65C046364A3549384BCB5880217E
:1027000049011943354BD150C046FB1D1B785A1E59
:10271000354B9200D358FB60FB68DB78DBB20C22B0
:102720009343DAB2FB68DA702D4B1B68181CFA234E
:10273000D900FEF78BF8031CFA2292005A433B683B
:102740001B01101C191CFEF781F8031C1A1C3B1CF2
:1027500012331A80FB681B78DAB23B1C11331F213D
:102760008A431A703B1C12331A88F8235B0113400A
:102770001B12DAB21F231340DAB23B1C11331B7851
:102780001343DAB2FB681A703B1C12331B88DAB2AF
:10279000FB685A70FB6800229A70FB6800229A71ED
:1027A000FB6800225A71FB68DB78DAB27F231340A2
:1027B000DAB2FB68DA70FB68DB78DBB20C22134319
:1027C000DAB2FB68DA70BD4606B080BD00A00640F4
:1027D0000070044004100000009004403410000019
:1027E00018F0FF1F00D00440E43C000080B586B024
:1027F00000AF0A1CFB1D011C1970BB1D1A70224B77
:102800003B61FB1D1B785A1E204B9200D358FB6086
:10281000FB1D1B78181C00F0DBF9031C002B01D1F9
:1028200000232CE000237B611EE0FB1D1B78002BA6
:102830000BD13B691B79DBB2DBB25BB2002B10DA48
:102840003B69BA1D1278DA7112E0FB681B79DBB2C2
:10285000DBB25BB2002B04DAFB68BA1D1278DA71C6
:1028600006E07B6901337B617A69094B9A42DCD9C6
:102870007A69074B9A4201D9002300E00123181C12
:10288000BD4606B080BDC04600A00640E43C000046
:10289000BAFB000080B584B000AF3A60FB1D021C9B
:1028A0001A703B1D0A1C1A80FB1D1B78181C00F0B7
:1028B0008FF9031C002B01D100232CE03B1C0E33AD
:1028C00000221A8016E03B1C0E331B883A68D3188E
:1028D0001B78FA1D1278101C191CFFF787FF031CC8
:1028E000002B00D10DE03B1C0E331A883B1C0E332D
:1028F00001321A803A1C0E323B1D12881B889A4204
:10290000E1D33A1C0E323B1D12881B889A4201D239
:10291000002300E00123181CBD4604B080BDC04662
:1029200080B584B000AF021C3960FB1D1A703B1CDF
:102930000E3300221A803B68BB60FB1D1B78181CFD
:1029400000F046F9031C002B01D1002325E03B1CBD
:102950000E3300221A8017E03B1C0E331B88BA6826
:10296000D3181B78FA1D1278101C191CFFF73EFFB4
:10297000031C002B01D100230FE03B1C0E331A88EF
:102980003B1C0E3301321A803B1C0E331B88BA6885
:10299000D3181B78002BDFD10123181CBD4604B0CF
:1029A00080BDC04680B586B000AF021C3960FB1DFB
:1029B0001A702B4BFB60FB1D1B785A1E294B920093
:1029C000D358BB60FB1D1B78181C00F001F9031CD9
:1029D000002B04D13B6800221A7000233BE0002347
:1029E0007B6126E0FB1D1B78002B0FD1FB681B7958
:1029F000DBB21A1C2023134018D03B1C1333FA6897
:102A0000D2791A703B6801221A7016E0BB681B79F4
:102A1000DBB21A1C2023134008D03B1C1333BA68C6
:102A2000D2791A703B6801221A7006E07B69013383
:102A30007B617A690C4B9A42D4D97A690A4B9A42E3
:102A400006D93B1C1333FF221A703B6800221A7010
:102A50003B1C13331B78181CBD4606B080BDC04616
:102A600000A00640E43C0000BAFB000080B584B042
:102A700000AF021CFB1D1A70184BFB60FB1D1B787E
:102A80005A1E174B9200D358BB60FB1D1B78181CB5
:102A900000F09EF8031C002B00D11CE0FB1D1B78EE
:102AA000002B08D1FB68DB78DBB220221343DAB2BB
:102AB000FB68DA7007E0BB68DB78DBB220221343E7
:102AC000DAB2BB68DA70FB1D1B78064AD35C5BB2D6
:102AD000181CFFF727FDBD4604B080BD00A00640CE
:102AE000E43C000004F0FF1F80B586B000AF021C7C
:102AF000FB1D1A70344B7B61FB1D1B785A1E334B38
:102B00009200D3583B61FB1D1B78181C00F060F845
:102B1000031C002B01D1002352E0FB1D1B78002B6E
:102B200027D17B69DB78DAB27F231340DAB27B6985
:102B3000DA707B691B79D9B23B1C0F3320220A4023
:102B40001A703B1C0F331B785B09DBB2DBB21A1C1B
:102B500001231340DBB27A69D278D2B25209D2B2E1
:102B6000D2B2111C01220A40D2B21340DBB2DBB256
:102B700026E03B69DB78DAB27F231340DAB23B69A7
:102B8000DA703B691B79D9B23B1C0F3320220A4013
:102B90001A703B1C0F331B785B09DBB2DBB21A1CCB
:102BA00001231340DBB23A69D278D2B25209D2B2D1
:102BB000D2B2111C01220A40D2B21340DBB2DBB206
:102BC000181CBD4606B080BD00A00640E43C0000D5
:102BD00080B582B000AF021CFB1D1A70FB1D1B7874
:102BE000022B01D9002300E00123181CBD4602B0CE
:102BF00080BDC04680B582B000AF021CFB1D1A70BC
:102C0000064BFA1D1278111C1F220A400121081CD4
:102C10009040021C1A60BD4602B080BD00E100E099
:102C200090B587B000AFB9607A603B1C0E33021CD0
:102C30001A80324A3149324BC9583B1C0E331B882B
:102C400018330120041C9C40231C19432C4BD150E9
:102C50002A4A2A492B4BCB58802149041943294B36
:102C6000D150264A2549274BCB5880214902194388
:102C7000244BD1502448B968FDF7E8FD031C7B6163
:102C800005E03B6901333B617B695B087B617B69E4
:102C9000012BF6D83B1C0E331A881C4B9200D358DC
:102CA0003A1C0E321188194A89008A58116838690D
:102CB000072202400A4348210A431A603B1C0E3394
:102CC0001A88124B9200D35800225A603B1C0E33D4
:102CD0001A880E4B9200D458B868FEF7D7F9031C37
:102CE000181C7968FDF712FF031C181CFDF738FE4D
:102CF000031CA360BD4607B090BDC04600700440F1
:102D00003C1000000410000080BB000008F0FF1F12
:102D100080B582B000AF021CFB1D1A70FB1D1B7832
:102D2000022B02D9FB1D02221A70FB1D1B78044ADC
:102D3000D35C5BB2181CFFF75DFFBD4602B080BDDF
:102D400014F0FF1F80B582B000AF021CFB1D1A708B
:102D5000FB1D1A78064B9200D3581A688023134043
:102D600001D0012300E00023181CBD4602B080BD45
:102D700008F0FF1F80B582B000AF021CFB1D1A7067
:102D8000FB1D1A78074B9200D358FA1D1178054A9B
:102D900089008A58126880210A431A60BD4602B031
:102DA00080BDC04608F0FF1F80B586B000AFBB1DD8
:102DB00018807B1D19703B1D1A70BB1D19883A1CA9
:102DC0000F323B1C0E33081C111C1A1C00F058F962
:102DD0003B1C0F331B781A1C2A4B9200D3587B6183
:102DE0003B1C0F331B781A1C274B9200D3583B61B6
:102DF0003B1C0E331B781A1C3B1C0E331B78191C12
:102E00007B698900C958214B19407B699200D150D8
:102E10003B1C0E331B781A1C3B1C0E331B78191CF1
:102E20007B698900CB588021490019437B69920056
:102E3000D1507B1D1B78012B14D13B695A693B1C77
:102E40000E331B780121081C9840031C1A433B6970
:102E50005A61BB1D1A883B1D1B78101C191C00F001
:102E600017F80CE03B695B693A1C0E3212780121BD
:102E7000081C9040021CD2431A403B695A61BD466F
:102E800006B080BDEC3C0000003D0000FFF8FFFFF5
:102E900080B584B000AF0A1CBB1D011C19807B1DCE
:102EA0001A70BB1D19883A1C0B323B1C0A33081CD4
:102EB000111C1A1C00F0E4F83B1C0B331B781A1C85
:102EC000124B9200D358FB607B1D1B78012B0CD159
:102ED000FB681A683B1C0A331B780121081C9840C8
:102EE000031C1A43FB681A600CE0FB681B683A1C61
:102EF0000A3212780121081C9040021CD2431A4069
:102F0000FB681A60BD4604B080BDC046003D0000AD
:102F100080B584B000AF021CBB1D1A80BB1D198890
:102F20003A1C0B323B1C0A33081C111C1A1C00F003
:102F3000A7F83B1C0B331B781A1C094B9200D35883
:102F4000FB60FB68DA683B1C0A331B780121081C14
:102F50009840031C1A43FB68DA60BD4604B080BD8C
:102F6000003D000080B584B000AF0A1CBB1D011CF1
:102F700019807B1D1A70BB1D19883A1C0B323B1C33
:102F80000A33081C111C1A1C00F07AF83B1C0B3386
:102F90001B781A1C384B9200D358FB603B1C0A3339
:102FA0001B781A1C3B1C0A331B78191CFB68890010
:102FB000C958324B1940FB689200D1503B1C0A3370
:102FC0001B781A1C3B1C0A331B78191CFB688900F0
:102FD000CB58802149001943FB689200D1503B1C1B
:102FE0000A331B781A1C3B1C0A331B78191CFB681C
:102FF0008900CB584021181C8843011CFB689200B3
:10300000D1503B1C0A331B781A1C3B1C0A331B781B
:10301000191CFB688900CB5802211943FB689200F8
:10302000D1507B1D1B78012B10D13B1C0A331B7820
:103030001A1C3B1C0A331B78191CFB688900CB58EF
:1030400001211943FB689200D15011E03B1C0A3367
:103050001B781A1C3B1C0A331B78191CFB6889005F
:10306000CB580121181C8843011CFB689200D150E9
:10307000BD4604B080BDC046EC3C0000FFF8FFFF39
:1030800080B584B000AFB9607A603B1C0E33021C7F
:103090001A803B1C0E331B881B0A9BB2DAB2BB683A
:1030A0001A703B1C0E331B88DAB27B681A70BD465F
:1030B00004B080BD80B582B000AF00237B60FB1CF4
:1030C00000221A705B4A88235B010021D1505A4BC1
:1030D00014225A70584B98221A7000237B600AE021
:1030E000554B9B79DBB21A1C0223134000D006E03B
:1030F0007B6801337B607A68504B9A42F0D9002399
:103100007B600AE04C4B9B79DBB21A1C1023134006
:1031100000D106E07B6801337B607A68484B9A42B5
:10312000F0D900237B600CE0434B9B79DBB21A1C87
:103130000C2313409B08022B00D106E07B6801336F
:103140007B607A683E4B9A42EED93B4B3A4A5279C1
:10315000D2B220210A43D2B25A71374B364A127981
:10316000D2B201210A43D2B21A71334B5B79DAB27F
:10317000FB1C1A70FB1CFA1C12781F218A431A7060
:10318000FB1CFA1C127840210A431A702A4BFA1CC5
:1031900012785A7100237B600AE0274B9B79DBB2DF
:1031A0001A1C2023134000D006E07B6801337B60AB
:1031B0007A68234B9A42F0D900237B600AE01E4BC9
:1031C0009B79DBB21A1C4023134000D006E07B68D9
:1031D00001337B607A681B4B9A42F0D9154A1A4B2F
:1031E0001A49D150144B144A1278D1B23F220A40E6
:1031F000D2B21A7000237B600CE00F4B9B79DBB2DC
:103200001A1C0C2313409B08032B00D106E07B689B
:1032100001337B607A680A4B9A42EED9054A054928
:103220000B4BCB58F82189011943094BD150BD46AE
:1032300002B080BD00700440004006401F4E0000F8
:10324000CF0700009F0F0000441000000000011095
:1032500038100000F0B50F2A35D9031C0B439C072A
:1032600035D1161C103E36093501451910350C1C98
:10327000031C27681F6067685F60A7689F60E76836
:103280001034DF601033AB42F3D1731C1B01C5183F
:10329000C9180F231340032B1BD91C1FA40801348A
:1032A000A4000023CE58EE500433A342FAD1ED1807
:1032B000C91803231A4005D00023CC5CEC54013319
:1032C0009342FAD1F0BD051C002AF5D1FAE7051C9E
:1032D000F2E71A1CF8E7C0460023C25C0133002A5B
:1032E000FBD1581E7047C04670B5051C0020002A4F
:1032F0002CD02B1C0B439C0729D1032A27D92C68DF
:103300000E68B44223D1131F002B1FD0224EA219E6
:10331000224EA24332420ED018E06A6849688A42BF
:103320002ED1043B002B10D01B4D5119914331423B
:103330000BD1211C051C281D0C1D032BEDD85A1E7A
:10334000002B21D0211C051C02E0002070BD013A99
:103350002C78087884421BD1002AF6D0002CF4D0B7
:103360006B1C0131AD1805E0AB42EED0002CECD067
:10337000013301311C780A789442F5D0A01AE5E7B0
:103380005A1E211C051CE3E72C790A79A01ADDE7F7
:10339000021CA01ADAE7C046FFFEFEFE8080808095
:1033A00054656D7065726174757265206973200073
:1033B0000000000041542B43495053544152543DA6
:1033C00022544350222C2234372E39342E313533B7
:1033D0002E3536222C383838380000000000000026
:1033E000EE0100040000FF006043000046460000BC
:1033F0000D0A0000415400004F4B000041542B4384
:1034000050494E3F00000000524541445900000021
:1034100041542B4349505354415455533D300000BF
:10342000434F4E4E454354204F4B000049502049D6
:103430004E495449414C0000495020475052534195
:1034400043540000495020434C4F534500000000B6
:1034500041542B43495053454E443D310000000038
:103460003E00000041542B43474154543D3100007D
:1034700041542B43474143543D312C31000000005F
:1034800041542B514953454E443D0000340C00003B
:103490002E0C00002E0C0000240C0000840B0000F9
:1034A000840B00001A0C0000240C0000840B0000A8
:1034B0001A0C0000840B0000240C0000820B00009A
:1034C000820B0000820B0000BC0C0000000000001A
:1034D00000000000002F000000000700070000149B
:1034E0007F147F1400242A7F2A12006264081323A9
:1034F00000364955225000000503000000001C2240
:103500004100000041221C000014083E081400087D
:10351000083E0808000000A060000008080808082D
:10352000000060600000002010080402003E5149C5
:10353000453E0000427F4000004261514946002163
:1035400041454B31001814127F100027454545397D
:10355000003C4A49493000017109050300364949D8
:10356000493600064949291E000036360000000091
:1035700056360000000814224100001414141414DC
:103580000000412214080002015109060032495985
:10359000513E007C1211127C007F49494936003EA1
:1035A00041414122007F4141221C007F494949415C
:1035B000007F09090901003E4149497A007F080856
:1035C000087F0000417F4100002040413F01007F13
:1035D00008142241007F40404040007F020C027FDF
:1035E000007F0408107F003E4141413E007F0909F1
:1035F0000906003E4151215E007F09192946004617
:10360000494949310001017F0101003F4040403FED
:10361000001F2040201F003F4038403F0063140837
:103620001463000708700807006151494543000012
:103630007F41410000552A552A55000041417F0035
:10364000000402010204004040404040000001022A
:103650000400002054545478007F48444438003813
:103660004444442000384444487F0038545454189B
:1036700000087E0901020018A4A4A47C007F0804AD
:1036800004780000447D4000004080847D00007F7D
:10369000102844000000417F4000007C041804789A
:1036A000007C0804047800384444443800FC242496
:1036B00024180018242418FC007C0804040800487E
:1036C0005454542000043F444020003C4040207C9F
:1036D000001C2040201C003C4030403C004428108E
:1036E0002844001CA0A0A07C004464544C44141442
:1036F000141414140000000000000000000000007A
:1037000000000000000000F800000000000000338E
:103710003000000000100C06100C06000000000035
:103720000000000040C07840C0784000043F04041E
:103730003F040400007088FC08300000001820FFDF
:10374000211E0000F008F000E018000000211C031A
:103750001E211E0000F00888700000001E21232496
:103760001927211010160E000000000000000000B4
:1037700000000000000000E0180402000000000744
:103780001820400000020418E0000000004020184B
:1037900007000000404080F0804040000202010F1E
:1037A00001020200000000F0000000000101011F02
:1037B00001010100000000000000000080B0700066
:1037C00000000000000000000000000000010101F6
:1037D0000101010100000000000000000030300085
:1037E000000000000000000080601804006018065F
:1037F0000100000000E010080810E000000F102099
:1038000020100F00001010F8000000000020203FE2
:10381000202000000070080808887000003028246C
:10382000222130000030088888483000001820200D
:1038300020110E000000C02010F800000007042432
:10384000243F240000F80888880808000019212077
:1038500020110E0000E0108888180000000F1120D1
:1038600020110E0000380808C83808000000003F8A
:10387000000000000070880808887000001C2221E9
:1038800021221C0000E010080810E0000000312296
:1038900022110F00000000C0C00000000000003036
:1038A0003000000000000080000000000000806088
:1038B0000000000000008040201008000001020409
:1038C00008102000404040404040400004040404F0
:1038D00004040400000810204080000000201008AC
:1038E00004020100007048080808F00000000030E1
:1038F00036010000C030C828E810E000071827246F
:1039000023140B000000C038E0000000203C23021C
:103910000227382008F8888888700000203F20207F
:1039200020110E00C03008080808380007182020B1
:103930002010080008F808080810E000203F2020A8
:1039400020100F0008F88888E8081000203F202089
:103950002320180008F88888E8081000203F20007D
:1039600003000000C03008080838000007182020B5
:10397000221E020008F808000008F808203F210174
:1039800001213F20000808F8080800000020203F1F
:103990002020000000000808F8080800C08080808F
:1039A0007F00000008F888C028180800203F200188
:1039B0002638200008F8080000000000203F2020E2
:1039C0002020300008F8F800F8F80800203F003FF9
:1039D000003F200008F830C00008F808203F200011
:1039E00007183F00E01008080810E0000F10202022
:1039F00020100F0008F808080808F000203F2101F7
:103A000001010000E01008080810E0000F1824244D
:103A100038504F0008F8888888887000203F2000C0
:103A2000030C302000708808080838000038202176
:103A300021221C00180808F8080818000000203F80
:103A40002000000008F808000008F808001F2020E7
:103A500020201F000878880000C8380800000738B8
:103A60000E010000F80800F80008F800033C070009
:103A7000073C0300081868808068180820302C0371
:103A8000032C30200838C800C83808000000203F48
:103A90002000000010080808C83808002038262137
:103AA00020201800000000FE020202000000007F3B
:103AB00040404000000C30C0000000000000000149
:103AC0000638C00000020202FE0000000040404034
:103AD0007F00000000000402020204000000000059
:103AE00000000000000000000000000080808080D6
:103AF00080808080000202040000000000000000BE
:103B00000000000000008080808000000019242256
:103B100022223F2008F8008080000000003F112092
:103B200020110E000000008080800000000E112097
:103B300020201100000000808088F800000E112075
:103B400020103F200000808080800000001F222283
:103B500022221300008080F0888888180020203FEF
:103B6000202000000000808080808000006B949402
:103B70009493600008F8008080800000203F2100BE
:103B800000203F2000809898000000000020203F87
:103B900020200000000000809898000000C0808075
:103BA000807F000008F8000080808000203F240211
:103BB0002D302000000808F8000000000020203F01
:103BC000202000008080808080808000203F2000B6
:103BD0003F20003F8080008080800000203F210047
:103BE00000203F200000808080800000001F2020F7
:103BF00020201F00808000808000000080FFA12026
:103C000020110E000000008080808000000E112036
:103C100020A0FF80808080008080800020203F21C5
:103C20002000010000008080808080000033242478
:103C300024241900008080E0808000000000001F24
:103C4000202000008080000000808000001F2020D5
:103C500020103F20808080000080808000010E3096
:103C60000806010080800080008080800F300C03F7
:103C70000C300F0000808000808080000020312EFA
:103C80000E312000808080000080808080818E70D6
:103C90001806010000808080808080000021302C88
:103CA0002221300000000000807C020200000000A1
:103CB000003F404000000000FF0000000000000046
:103CC000FF0000000002027C800000000040403F36
:103CD00000000000000601010202040400000000D0
:103CE0000000000000B0064000C006400090044004
:103CF00000A0044000B0044000C0044000D00440D4
:103D000000F00F4040F00F4080F00F40C0F00F4037
:043D100000F10F406F
:103D1400040000000C0D0E000080034000900340DE
:0C3D240000A0034011121300006CDC0230
:0400000300000801F0
:00000001FF
